{
  "_format": "hh-sol-artifact-1",
  "contractName": "LSP7Mintable",
  "sourceName": "contracts/LSP7DigitalAsset/extensions/LSP7Mintable.sol",
  "abi": [
    {
      "inputs": [
        {
          "internalType": "string",
          "name": "name_",
          "type": "string"
        },
        {
          "internalType": "string",
          "name": "symbol_",
          "type": "string"
        },
        {
          "internalType": "address",
          "name": "newOwner_",
          "type": "address"
        },
        {
          "internalType": "bool",
          "name": "isNFT_",
          "type": "bool"
        }
      ],
      "stateMutability": "nonpayable",
      "type": "constructor"
    },
    {
      "anonymous": false,
      "inputs": [
        {
          "indexed": true,
          "internalType": "address",
          "name": "operator",
          "type": "address"
        },
        {
          "indexed": true,
          "internalType": "address",
          "name": "tokenOwner",
          "type": "address"
        },
        {
          "indexed": true,
          "internalType": "uint256",
          "name": "amount",
          "type": "uint256"
        }
      ],
      "name": "AuthorizedOperator",
      "type": "event"
    },
    {
      "anonymous": false,
      "inputs": [
        {
          "indexed": true,
          "internalType": "bytes32",
          "name": "key",
          "type": "bytes32"
        },
        {
          "indexed": false,
          "internalType": "bytes",
          "name": "value",
          "type": "bytes"
        }
      ],
      "name": "DataChanged",
      "type": "event"
    },
    {
      "anonymous": false,
      "inputs": [
        {
          "indexed": true,
          "internalType": "address",
          "name": "previousOwner",
          "type": "address"
        },
        {
          "indexed": true,
          "internalType": "address",
          "name": "newOwner",
          "type": "address"
        }
      ],
      "name": "OwnershipTransferred",
      "type": "event"
    },
    {
      "anonymous": false,
      "inputs": [
        {
          "indexed": true,
          "internalType": "address",
          "name": "operator",
          "type": "address"
        },
        {
          "indexed": true,
          "internalType": "address",
          "name": "tokenOwner",
          "type": "address"
        }
      ],
      "name": "RevokedOperator",
      "type": "event"
    },
    {
      "anonymous": false,
      "inputs": [
        {
          "indexed": true,
          "internalType": "address",
          "name": "operator",
          "type": "address"
        },
        {
          "indexed": true,
          "internalType": "address",
          "name": "from",
          "type": "address"
        },
        {
          "indexed": true,
          "internalType": "address",
          "name": "to",
          "type": "address"
        },
        {
          "indexed": false,
          "internalType": "uint256",
          "name": "amount",
          "type": "uint256"
        },
        {
          "indexed": false,
          "internalType": "bool",
          "name": "force",
          "type": "bool"
        },
        {
          "indexed": false,
          "internalType": "bytes",
          "name": "data",
          "type": "bytes"
        }
      ],
      "name": "Transfer",
      "type": "event"
    },
    {
      "inputs": [
        {
          "internalType": "address",
          "name": "operator",
          "type": "address"
        },
        {
          "internalType": "uint256",
          "name": "amount",
          "type": "uint256"
        }
      ],
      "name": "authorizeOperator",
      "outputs": [],
      "stateMutability": "nonpayable",
      "type": "function"
    },
    {
      "inputs": [
        {
          "internalType": "address",
          "name": "tokenOwner",
          "type": "address"
        }
      ],
      "name": "balanceOf",
      "outputs": [
        {
          "internalType": "uint256",
          "name": "",
          "type": "uint256"
        }
      ],
      "stateMutability": "view",
      "type": "function"
    },
    {
      "inputs": [],
      "name": "decimals",
      "outputs": [
        {
          "internalType": "uint256",
          "name": "",
          "type": "uint256"
        }
      ],
      "stateMutability": "view",
      "type": "function"
    },
    {
      "inputs": [
        {
          "internalType": "bytes32[]",
          "name": "keys",
          "type": "bytes32[]"
        }
      ],
      "name": "getData",
      "outputs": [
        {
          "internalType": "bytes[]",
          "name": "values",
          "type": "bytes[]"
        }
      ],
      "stateMutability": "view",
      "type": "function"
    },
    {
      "inputs": [
        {
          "internalType": "address",
          "name": "operator",
          "type": "address"
        },
        {
          "internalType": "address",
          "name": "tokenOwner",
          "type": "address"
        }
      ],
      "name": "isOperatorFor",
      "outputs": [
        {
          "internalType": "uint256",
          "name": "",
          "type": "uint256"
        }
      ],
      "stateMutability": "view",
      "type": "function"
    },
    {
      "inputs": [
        {
          "internalType": "address",
          "name": "to",
          "type": "address"
        },
        {
          "internalType": "uint256",
          "name": "amount",
          "type": "uint256"
        },
        {
          "internalType": "bool",
          "name": "force",
          "type": "bool"
        },
        {
          "internalType": "bytes",
          "name": "data",
          "type": "bytes"
        }
      ],
      "name": "mint",
      "outputs": [],
      "stateMutability": "nonpayable",
      "type": "function"
    },
    {
      "inputs": [],
      "name": "owner",
      "outputs": [
        {
          "internalType": "address",
          "name": "",
          "type": "address"
        }
      ],
      "stateMutability": "view",
      "type": "function"
    },
    {
      "inputs": [],
      "name": "renounceOwnership",
      "outputs": [],
      "stateMutability": "nonpayable",
      "type": "function"
    },
    {
      "inputs": [
        {
          "internalType": "address",
          "name": "operator",
          "type": "address"
        }
      ],
      "name": "revokeOperator",
      "outputs": [],
      "stateMutability": "nonpayable",
      "type": "function"
    },
    {
      "inputs": [
        {
          "internalType": "bytes32[]",
          "name": "_keys",
          "type": "bytes32[]"
        },
        {
          "internalType": "bytes[]",
          "name": "_values",
          "type": "bytes[]"
        }
      ],
      "name": "setData",
      "outputs": [],
      "stateMutability": "nonpayable",
      "type": "function"
    },
    {
      "inputs": [
        {
          "internalType": "bytes4",
          "name": "interfaceId",
          "type": "bytes4"
        }
      ],
      "name": "supportsInterface",
      "outputs": [
        {
          "internalType": "bool",
          "name": "",
          "type": "bool"
        }
      ],
      "stateMutability": "view",
      "type": "function"
    },
    {
      "inputs": [],
      "name": "totalSupply",
      "outputs": [
        {
          "internalType": "uint256",
          "name": "",
          "type": "uint256"
        }
      ],
      "stateMutability": "view",
      "type": "function"
    },
    {
      "inputs": [
        {
          "internalType": "address",
          "name": "from",
          "type": "address"
        },
        {
          "internalType": "address",
          "name": "to",
          "type": "address"
        },
        {
          "internalType": "uint256",
          "name": "amount",
          "type": "uint256"
        },
        {
          "internalType": "bool",
          "name": "force",
          "type": "bool"
        },
        {
          "internalType": "bytes",
          "name": "data",
          "type": "bytes"
        }
      ],
      "name": "transfer",
      "outputs": [],
      "stateMutability": "nonpayable",
      "type": "function"
    },
    {
      "inputs": [
        {
          "internalType": "address[]",
          "name": "from",
          "type": "address[]"
        },
        {
          "internalType": "address[]",
          "name": "to",
          "type": "address[]"
        },
        {
          "internalType": "uint256[]",
          "name": "amount",
          "type": "uint256[]"
        },
        {
          "internalType": "bool",
          "name": "force",
          "type": "bool"
        },
        {
          "internalType": "bytes[]",
          "name": "data",
          "type": "bytes[]"
        }
      ],
      "name": "transferBatch",
      "outputs": [],
      "stateMutability": "nonpayable",
      "type": "function"
    },
    {
      "inputs": [
        {
          "internalType": "address",
          "name": "newOwner",
          "type": "address"
        }
      ],
      "name": "transferOwnership",
      "outputs": [],
      "stateMutability": "nonpayable",
      "type": "function"
    }
  ],
  "bytecode": "0x60806040523480156200001157600080fd5b506040516200247138038062002471833981016040819052620000349162000460565b83838383838383806200004f6000546001600160a01b031690565b6001600160a01b0316816001600160a01b0316146200007e576200007e816200016260201b620008e51760201c565b62000090635a988c0f60e01b620001f5565b506040805180820190915260048152632936598960e21b6020820152620000d9907feafec4d89fa9619884b6b89135626455000000000000000000000000a4d966249062000279565b620001057fdeba1e292f8ba88238e10ab3c7f88bd4be4fac56cad5194b6ecceaf653468af18462000279565b620001317f2f0a68ab07768e01943a599e73362a0e17a63a72e94dd2e384d2c1d4db9327568362000279565b50506002805460ff1916831515179055506200015463e33f65c360e01b620001f5565b5050505050505050620005c0565b600054600160a01b900460ff1615620001d45760405162461bcd60e51b815260206004820152602960248201527f4f776e61626c653a206f776e65722063616e206f6e6c7920626520696e69746960448201526861746564206f6e636560b81b60648201526084015b60405180910390fd5b6000805460ff60a01b1916600160a01b179055620001f281620002d9565b50565b6001600160e01b03198082161415620002515760405162461bcd60e51b815260206004820152601c60248201527f4552433136353a20696e76616c696420696e74657266616365206964000000006044820152606401620001cb565b6001600160e01b0319166000908152600160208190526040909120805460ff19169091179055565b600082815260066020908152604090912082516200029a9284019062000329565b50817fece574603820d07bc9b91f2a932baadf4628aabcb8afba49776529c14a6104b282604051620002cd919062000505565b60405180910390a25050565b600080546001600160a01b038381166001600160a01b0319831681178455604051919092169283917f8be0079c531659141344cd1fd0a4f28419497f9722a3daafe3b4186f6b6457e09190a35050565b82805462000337906200056d565b90600052602060002090601f0160209004810192826200035b5760008555620003a6565b82601f106200037657805160ff1916838001178555620003a6565b82800160010185558215620003a6579182015b82811115620003a657825182559160200191906001019062000389565b50620003b4929150620003b8565b5090565b5b80821115620003b45760008155600101620003b9565b600082601f830112620003e157600080fd5b81516001600160401b0380821115620003fe57620003fe620005aa565b604051601f8301601f19908116603f01168101908282118183101715620004295762000429620005aa565b816040528381528660208588010111156200044357600080fd5b620004568460208301602089016200053a565b9695505050505050565b600080600080608085870312156200047757600080fd5b84516001600160401b03808211156200048f57600080fd5b6200049d88838901620003cf565b95506020870151915080821115620004b457600080fd5b50620004c387828801620003cf565b604087015190945090506001600160a01b0381168114620004e357600080fd5b60608601519092508015158114620004fa57600080fd5b939692955090935050565b6020815260008251806020840152620005268160408501602087016200053a565b601f01601f19169190910160400192915050565b60005b83811015620005575781810151838201526020016200053d565b8381111562000567576000848401525b50505050565b600181811c908216806200058257607f821691505b60208210811415620005a457634e487b7160e01b600052602260045260246000fd5b50919050565b634e487b7160e01b600052604160045260246000fd5b611ea180620005d06000396000f3fe608060405234801561001057600080fd5b50600436106100f55760003560e01c8063715018a611610097578063a8a34e0a11610066578063a8a34e0a146101f6578063d95b637114610209578063f2fde38b1461021c578063fad8b32a1461022f57600080fd5b8063715018a6146101ad5780637580d920146101b5578063760d9bba146101c85780638da5cb5b146101db57600080fd5b8063313ce567116100d3578063313ce5671461014957806347980aa3146101515780634e3e6e9c1461016457806370a082311461018457600080fd5b806301ffc9a7146100fa57806314a6e2931461012257806318160ddd14610137575b600080fd5b61010d610108366004611b0e565b610242565b60405190151581526020015b60405180910390f35b610135610130366004611a8d565b610282565b005b6003545b604051908152602001610119565b61013b6103b7565b61013561015f3660046118b0565b6103d6565b610177610172366004611a50565b6103e5565b6040516101199190611c44565b61013b6101923660046117e7565b6001600160a01b031660009081526004602052604090205490565b61013561049b565b6101356101c33660046118da565b610501565b6101356101d6366004611835565b61056d565b6000546040516001600160a01b039091168152602001610119565b610135610204366004611944565b61066f565b61013b610217366004611802565b61078f565b61013561022a3660046117e7565b6107f7565b61013561023d3660046117e7565b6108d9565b60006301ffc9a760e01b6001600160e01b03198316148061027c57506001600160e01b0319821660009081526001602052604090205460ff165b92915050565b6000546001600160a01b031633146102e15760405162461bcd60e51b815260206004820181905260248201527f4f776e61626c653a2063616c6c6572206973206e6f7420746865206f776e657260448201526064015b60405180910390fd5b80518251146103585760405162461bcd60e51b815260206004820152602660248201527f4b657973206c656e677468206e6f7420657175616c20746f2076616c7565732060448201527f6c656e677468000000000000000000000000000000000000000000000000000060648201526084016102d8565b60005b82518110156103b2576103a083828151811061037957610379611e31565b602002602001015183838151811061039357610393611e31565b602002602001015161099c565b806103aa81611e00565b91505061035b565b505050565b60025460009060ff166103cb5760126103ce565b60005b60ff16905090565b6103e13383836109f8565b5050565b6060815167ffffffffffffffff81111561040157610401611e47565b60405190808252806020026020018201604052801561043457816020015b606081526020019060019003908161041f5790505b50905060005b82518110156104955761046583828151811061045857610458611e31565b6020026020010151610c7f565b82828151811061047757610477611e31565b6020026020010181905250808061048d90611e00565b91505061043a565b50919050565b6000546001600160a01b031633146104f55760405162461bcd60e51b815260206004820181905260248201527f4f776e61626c653a2063616c6c6572206973206e6f7420746865206f776e657260448201526064016102d8565b6104ff6000610d21565b565b6000546001600160a01b0316331461055b5760405162461bcd60e51b815260206004820181905260248201527f4f776e61626c653a2063616c6c6572206973206e6f7420746865206f776e657260448201526064016102d8565b61056784848484610d89565b50505050565b336001600160a01b038616811461065a576001600160a01b038087166000908152600560209081526040808320938516835292905220548481101561061a5760405162461bcd60e51b815260206004820152603860248201527f4c5350373a207472616e7366657220616d6f756e742065786365656473206f7060448201527f657261746f7220617574686f72697a656420616d6f756e74000000000000000060648201526084016102d8565b6001600160a01b038088166000908152600560209081526040808320938616835292905220546106589088908490610653908990611d88565b6109f8565b505b6106678686868686610eb0565b505050505050565b83518551148015610681575082518551145b801561068e575080518551145b6107005760405162461bcd60e51b815260206004820152602860248201527f4c5350373a207472616e736665724261746368206c697374206c656e6774682060448201527f6d69736d6174636800000000000000000000000000000000000000000000000060648201526084016102d8565b60005b85518110156106675761077d86828151811061072157610721611e31565b602002602001015186838151811061073b5761073b611e31565b602002602001015186848151811061075557610755611e31565b60200260200101518686868151811061077057610770611e31565b602002602001015161056d565b8061078781611e00565b915050610703565b6000826001600160a01b0316826001600160a01b031614156107ca57506001600160a01b03811660009081526004602052604090205461027c565b506001600160a01b0380821660009081526005602090815260408083209386168352929052205492915050565b6000546001600160a01b031633146108515760405162461bcd60e51b815260206004820181905260248201527f4f776e61626c653a2063616c6c6572206973206e6f7420746865206f776e657260448201526064016102d8565b6001600160a01b0381166108cd5760405162461bcd60e51b815260206004820152602660248201527f4f776e61626c653a206e6577206f776e657220697320746865207a65726f206160448201527f646472657373000000000000000000000000000000000000000000000000000060648201526084016102d8565b6108d681610d21565b50565b6108d6338260006109f8565b600054600160a01b900460ff16156109655760405162461bcd60e51b815260206004820152602960248201527f4f776e61626c653a206f776e65722063616e206f6e6c7920626520696e69746960448201527f61746564206f6e6365000000000000000000000000000000000000000000000060648201526084016102d8565b600080547fffffffffffffffffffffff00ffffffffffffffffffffffffffffffffffffffff16600160a01b1790556108d681610d21565b600082815260066020908152604090912082516109bb9284019061156b565b50817fece574603820d07bc9b91f2a932baadf4628aabcb8afba49776529c14a6104b2826040516109ec9190611cbf565b60405180910390a25050565b826001600160a01b0316826001600160a01b03161415610aa65760405162461bcd60e51b815260206004820152604360248201527f4c5350373a207570646174696e67206f70657261746f72206661696c65642c2060448201527f63616e206e6f742075736520746f6b656e206f776e6572206173206f7065726160648201527f746f720000000000000000000000000000000000000000000000000000000000608482015260a4016102d8565b6001600160a01b038216610b24576040805162461bcd60e51b81526020600482015260248101919091527f4c5350373a207570646174696e67206f70657261746f72206661696c65642c2060448201527f6f70657261746f722063616e206e6f74206265207a65726f206164647265737360648201526084016102d8565b6001600160a01b038316610bc65760405162461bcd60e51b815260206004820152604560248201527f4c5350373a207570646174696e67206f70657261746f72206661696c65642c2060448201527f63616e206e6f7420736574206f70657261746f7220666f72207a65726f20616460648201527f6472657373000000000000000000000000000000000000000000000000000000608482015260a4016102d8565b6001600160a01b0380841660009081526005602090815260408083209386168352929052208190558015610c3a5780836001600160a01b0316836001600160a01b03167fd66aff874162a96578e919097b6f6d153dfd89a5cec41bb331fdb0c4aec16e2c60405160405180910390a4505050565b826001600160a01b0316826001600160a01b03167f50546e66e5f44d728365dc3908c63bc5cfeeab470722c1677e3073a6ac294aa160405160405180910390a3505050565b6000818152600660205260409020805460609190610c9c90611dcb565b80601f0160208091040260200160405190810160405280929190818152602001828054610cc890611dcb565b8015610d155780601f10610cea57610100808354040283529160200191610d15565b820191906000526020600020905b815481529060010190602001808311610cf857829003601f168201915b50505050509050919050565b600080546001600160a01b038381167fffffffffffffffffffffffff0000000000000000000000000000000000000000831681178455604051919092169283917f8be0079c531659141344cd1fd0a4f28419497f9722a3daafe3b4186f6b6457e09190a35050565b6001600160a01b038416610e055760405162461bcd60e51b815260206004820152602a60248201527f4c5350373a206d696e7420746f20746865207a65726f2061646472657373206e60448201527f6f7420616c6c6f7765640000000000000000000000000000000000000000000060648201526084016102d8565b33610e126000868661110f565b6001600160a01b03851660009081526004602052604081208054869290610e3a908490611d70565b92505081905550846001600160a01b031660006001600160a01b0316826001600160a01b03167f3997e418d2cef0b3b0e907b1e39605c3f7d32dbd061e82ea5b4a770d46a160a6878787604051610e9393929190611cd2565b60405180910390a4610ea960008686868661115f565b5050505050565b6001600160a01b038516610f2b5760405162461bcd60e51b8152602060048201526024808201527f4c5350373a207472616e736665722066726f6d20746865207a65726f2061646460448201527f726573730000000000000000000000000000000000000000000000000000000060648201526084016102d8565b6001600160a01b038416610fa75760405162461bcd60e51b815260206004820152602260248201527f4c5350373a207472616e7366657220746f20746865207a65726f20616464726560448201527f737300000000000000000000000000000000000000000000000000000000000060648201526084016102d8565b6001600160a01b0385166000908152600460205260409020548311156110355760405162461bcd60e51b815260206004820152603060248201527f4c5350373a207472616e7366657220616d6f756e74206578636565647320746f60448201527f6b656e4f776e65722062616c616e63650000000000000000000000000000000060648201526084016102d8565b3361104286868685611324565b61104d86868661110f565b6001600160a01b03861660009081526004602052604081208054869290611075908490611d88565b90915550506001600160a01b038516600090815260046020526040812080548692906110a2908490611d70565b92505081905550846001600160a01b0316866001600160a01b0316826001600160a01b03167f3997e418d2cef0b3b0e907b1e39605c3f7d32dbd061e82ea5b4a770d46a160a68787876040516110fa93929190611cd2565b60405180910390a4610667868686868661115f565b6001600160a01b03831661113557806003600082825461112f9190611d70565b90915550505b6001600160a01b0382166103b25780600360008282546111559190611d88565b9091555050505050565b61116884611417565b8015611180575061118084631aed5a8560e21b61144a565b156112595760008585858460405160200161119e9493929190611bdb565b60408051601f1981840301815290829052631aed5a8560e21b825291506001600160a01b03861690636bb56a14906111fc907fdbe2c314e1aee2970c72666f2ebe8933a8575263ea71e5ff6a9178e95d47a26f908590600401611ca6565b600060405180830381600087803b15801561121657600080fd5b505af115801561122a573d6000803e3d6000fd5b505050506040513d6000823e601f3d908101601f191682016040526112529190810190611b38565b5050610ea9565b81610ea9576001600160a01b0384163b156112dc5760405162461bcd60e51b815260206004820152603460248201527f4c5350373a20746f6b656e20726563656976657220636f6e7472616374206d6960448201527f7373696e67204c53503120696e7465726661636500000000000000000000000060648201526084016102d8565b60405162461bcd60e51b815260206004820152601b60248201527f4c5350373a20746f6b656e20726563656976657220697320454f41000000000060448201526064016102d8565b61132d84611417565b8015611345575061134584631aed5a8560e21b61144a565b15610567576000848484846040516020016113639493929190611bdb565b60408051601f1981840301815290829052631aed5a8560e21b825291506001600160a01b03861690636bb56a14906113c1907f40b8bec57d7b5ff0dbd9e9acd0a47dfeb0101e1a203766f5ccab00445fbf39e9908590600401611ca6565b600060405180830381600087803b1580156113db57600080fd5b505af11580156113ef573d6000803e3d6000fd5b505050506040513d6000823e601f3d908101601f191682016040526106679190810190611b38565b600061142a826301ffc9a760e01b61146d565b801561027c5750611443826001600160e01b031961146d565b1592915050565b600061145583611417565b80156114665750611466838361146d565b9392505050565b604080516001600160e01b0319831660248083019190915282518083039091018152604490910182526020810180517bffffffffffffffffffffffffffffffffffffffffffffffffffffffff166301ffc9a760e01b179052905160009190829081906001600160a01b03871690617530906114e9908690611c28565b6000604051808303818686fa925050503d8060008114611525576040519150601f19603f3d011682016040523d82523d6000602084013e61152a565b606091505b5091509150602081511015611545576000935050505061027c565b8180156115615750808060200190518101906115619190611af1565b9695505050505050565b82805461157790611dcb565b90600052602060002090601f01602090048101928261159957600085556115df565b82601f106115b257805160ff19168380011785556115df565b828001600101855582156115df579182015b828111156115df5782518255916020019190600101906115c4565b506115eb9291506115ef565b5090565b5b808211156115eb57600081556001016115f0565b80356001600160a01b038116811461161b57600080fd5b919050565b600082601f83011261163157600080fd5b8135602061164661164183611d24565b611cf3565b80838252828201915082860187848660051b890101111561166657600080fd5b60005b8581101561168c5761167a82611604565b84529284019290840190600101611669565b5090979650505050505050565b600082601f8301126116aa57600080fd5b813560206116ba61164183611d24565b80838252828201915082860187848660051b89010111156116da57600080fd5b60005b8581101561168c578135845292840192908401906001016116dd565b600082601f83011261170a57600080fd5b8135602061171a61164183611d24565b80838252828201915082860187848660051b890101111561173a57600080fd5b6000805b8681101561177d57823567ffffffffffffffff81111561175c578283fd5b61176a8b88838d0101611796565b865250938501939185019160010161173e565b509198975050505050505050565b803561161b81611e5d565b600082601f8301126117a757600080fd5b81356117b561164182611d48565b8181528460208386010111156117ca57600080fd5b816020850160208301376000918101602001919091529392505050565b6000602082840312156117f957600080fd5b61146682611604565b6000806040838503121561181557600080fd5b61181e83611604565b915061182c60208401611604565b90509250929050565b600080600080600060a0868803121561184d57600080fd5b61185686611604565b945061186460208701611604565b935060408601359250606086013561187b81611e5d565b9150608086013567ffffffffffffffff81111561189757600080fd5b6118a388828901611796565b9150509295509295909350565b600080604083850312156118c357600080fd5b6118cc83611604565b946020939093013593505050565b600080600080608085870312156118f057600080fd5b6118f985611604565b935060208501359250604085013561191081611e5d565b9150606085013567ffffffffffffffff81111561192c57600080fd5b61193887828801611796565b91505092959194509250565b600080600080600060a0868803121561195c57600080fd5b853567ffffffffffffffff8082111561197457600080fd5b61198089838a01611620565b965060209150818801358181111561199757600080fd5b6119a38a828b01611620565b9650506040880135818111156119b857600080fd5b8801601f81018a136119c957600080fd5b80356119d761164182611d24565b8082825285820191508584018d878560051b87010111156119f757600080fd5b600094505b83851015611a1a5780358352600194909401939186019186016119fc565b509750611a2d925050506060890161178b565b93506080880135915080821115611a4357600080fd5b506118a3888289016116f9565b600060208284031215611a6257600080fd5b813567ffffffffffffffff811115611a7957600080fd5b611a8584828501611699565b949350505050565b60008060408385031215611aa057600080fd5b823567ffffffffffffffff80821115611ab857600080fd5b611ac486838701611699565b93506020850135915080821115611ada57600080fd5b50611ae7858286016116f9565b9150509250929050565b600060208284031215611b0357600080fd5b815161146681611e5d565b600060208284031215611b2057600080fd5b81356001600160e01b03198116811461146657600080fd5b600060208284031215611b4a57600080fd5b815167ffffffffffffffff811115611b6157600080fd5b8201601f81018413611b7257600080fd5b8051611b8061164182611d48565b818152856020838501011115611b9557600080fd5b611ba6826020830160208601611d9f565b95945050505050565b60008151808452611bc7816020860160208601611d9f565b601f01601f19169290920160200192915050565b60006bffffffffffffffffffffffff19808760601b168352808660601b166014840152508360288301528251611c18816048850160208701611d9f565b9190910160480195945050505050565b60008251611c3a818460208701611d9f565b9190910192915050565b6000602080830181845280855180835260408601915060408160051b870101925083870160005b82811015611c9957603f19888603018452611c87858351611baf565b94509285019290850190600101611c6b565b5092979650505050505050565b828152604060208201526000611a856040830184611baf565b6020815260006114666020830184611baf565b8381528215156020820152606060408201526000611ba66060830184611baf565b604051601f8201601f1916810167ffffffffffffffff81118282101715611d1c57611d1c611e47565b604052919050565b600067ffffffffffffffff821115611d3e57611d3e611e47565b5060051b60200190565b600067ffffffffffffffff821115611d6257611d62611e47565b50601f01601f191660200190565b60008219821115611d8357611d83611e1b565b500190565b600082821015611d9a57611d9a611e1b565b500390565b60005b83811015611dba578181015183820152602001611da2565b838111156105675750506000910152565b600181811c90821680611ddf57607f821691505b6020821081141561049557634e487b7160e01b600052602260045260246000fd5b6000600019821415611e1457611e14611e1b565b5060010190565b634e487b7160e01b600052601160045260246000fd5b634e487b7160e01b600052603260045260246000fd5b634e487b7160e01b600052604160045260246000fd5b80151581146108d657600080fdfea26469706673582212208e0844883f10c2776afda4c4cfceba77962d72f106117556f2eb09c797343db564736f6c63430008070033",
  "linkReferences": {},
  "deployedLinkReferences": {}
}