{
  "_format": "hh-sol-artifact-1",
  "contractName": "LSP8Mintable",
  "sourceName": "contracts/LSP8IdentifiableDigitalAsset/extensions/LSP8Mintable.sol",
  "abi": [
    {
      "inputs": [
        {
          "internalType": "string",
          "name": "name_",
          "type": "string"
        },
        {
          "internalType": "string",
          "name": "symbol_",
          "type": "string"
        },
        {
          "internalType": "address",
          "name": "newOwner_",
          "type": "address"
        }
      ],
      "stateMutability": "nonpayable",
      "type": "constructor"
    },
    {
      "anonymous": false,
      "inputs": [
        {
          "indexed": true,
          "internalType": "address",
          "name": "operator",
          "type": "address"
        },
        {
          "indexed": true,
          "internalType": "address",
          "name": "tokenOwner",
          "type": "address"
        },
        {
          "indexed": true,
          "internalType": "bytes32",
          "name": "tokenId",
          "type": "bytes32"
        }
      ],
      "name": "AuthorizedOperator",
      "type": "event"
    },
    {
      "anonymous": false,
      "inputs": [
        {
          "indexed": true,
          "internalType": "bytes32",
          "name": "key",
          "type": "bytes32"
        },
        {
          "indexed": false,
          "internalType": "bytes",
          "name": "value",
          "type": "bytes"
        }
      ],
      "name": "DataChanged",
      "type": "event"
    },
    {
      "anonymous": false,
      "inputs": [
        {
          "indexed": true,
          "internalType": "address",
          "name": "previousOwner",
          "type": "address"
        },
        {
          "indexed": true,
          "internalType": "address",
          "name": "newOwner",
          "type": "address"
        }
      ],
      "name": "OwnershipTransferred",
      "type": "event"
    },
    {
      "anonymous": false,
      "inputs": [
        {
          "indexed": true,
          "internalType": "address",
          "name": "operator",
          "type": "address"
        },
        {
          "indexed": true,
          "internalType": "address",
          "name": "tokenOwner",
          "type": "address"
        },
        {
          "indexed": true,
          "internalType": "bytes32",
          "name": "tokenId",
          "type": "bytes32"
        }
      ],
      "name": "RevokedOperator",
      "type": "event"
    },
    {
      "anonymous": false,
      "inputs": [
        {
          "indexed": false,
          "internalType": "address",
          "name": "operator",
          "type": "address"
        },
        {
          "indexed": true,
          "internalType": "address",
          "name": "from",
          "type": "address"
        },
        {
          "indexed": true,
          "internalType": "address",
          "name": "to",
          "type": "address"
        },
        {
          "indexed": true,
          "internalType": "bytes32",
          "name": "tokenId",
          "type": "bytes32"
        },
        {
          "indexed": false,
          "internalType": "bool",
          "name": "force",
          "type": "bool"
        },
        {
          "indexed": false,
          "internalType": "bytes",
          "name": "data",
          "type": "bytes"
        }
      ],
      "name": "Transfer",
      "type": "event"
    },
    {
      "inputs": [
        {
          "internalType": "address",
          "name": "operator",
          "type": "address"
        },
        {
          "internalType": "bytes32",
          "name": "tokenId",
          "type": "bytes32"
        }
      ],
      "name": "authorizeOperator",
      "outputs": [],
      "stateMutability": "nonpayable",
      "type": "function"
    },
    {
      "inputs": [
        {
          "internalType": "address",
          "name": "tokenOwner",
          "type": "address"
        }
      ],
      "name": "balanceOf",
      "outputs": [
        {
          "internalType": "uint256",
          "name": "",
          "type": "uint256"
        }
      ],
      "stateMutability": "view",
      "type": "function"
    },
    {
      "inputs": [
        {
          "internalType": "bytes32[]",
          "name": "keys",
          "type": "bytes32[]"
        }
      ],
      "name": "getData",
      "outputs": [
        {
          "internalType": "bytes[]",
          "name": "values",
          "type": "bytes[]"
        }
      ],
      "stateMutability": "view",
      "type": "function"
    },
    {
      "inputs": [
        {
          "internalType": "bytes32",
          "name": "tokenId",
          "type": "bytes32"
        }
      ],
      "name": "getOperatorsOf",
      "outputs": [
        {
          "internalType": "address[]",
          "name": "",
          "type": "address[]"
        }
      ],
      "stateMutability": "view",
      "type": "function"
    },
    {
      "inputs": [
        {
          "internalType": "address",
          "name": "operator",
          "type": "address"
        },
        {
          "internalType": "bytes32",
          "name": "tokenId",
          "type": "bytes32"
        }
      ],
      "name": "isOperatorFor",
      "outputs": [
        {
          "internalType": "bool",
          "name": "",
          "type": "bool"
        }
      ],
      "stateMutability": "view",
      "type": "function"
    },
    {
      "inputs": [
        {
          "internalType": "address",
          "name": "to",
          "type": "address"
        },
        {
          "internalType": "bytes32",
          "name": "tokenId",
          "type": "bytes32"
        },
        {
          "internalType": "bool",
          "name": "force",
          "type": "bool"
        },
        {
          "internalType": "bytes",
          "name": "data",
          "type": "bytes"
        }
      ],
      "name": "mint",
      "outputs": [],
      "stateMutability": "nonpayable",
      "type": "function"
    },
    {
      "inputs": [],
      "name": "owner",
      "outputs": [
        {
          "internalType": "address",
          "name": "",
          "type": "address"
        }
      ],
      "stateMutability": "view",
      "type": "function"
    },
    {
      "inputs": [],
      "name": "renounceOwnership",
      "outputs": [],
      "stateMutability": "nonpayable",
      "type": "function"
    },
    {
      "inputs": [
        {
          "internalType": "address",
          "name": "operator",
          "type": "address"
        },
        {
          "internalType": "bytes32",
          "name": "tokenId",
          "type": "bytes32"
        }
      ],
      "name": "revokeOperator",
      "outputs": [],
      "stateMutability": "nonpayable",
      "type": "function"
    },
    {
      "inputs": [
        {
          "internalType": "bytes32[]",
          "name": "_keys",
          "type": "bytes32[]"
        },
        {
          "internalType": "bytes[]",
          "name": "_values",
          "type": "bytes[]"
        }
      ],
      "name": "setData",
      "outputs": [],
      "stateMutability": "nonpayable",
      "type": "function"
    },
    {
      "inputs": [
        {
          "internalType": "bytes4",
          "name": "interfaceId",
          "type": "bytes4"
        }
      ],
      "name": "supportsInterface",
      "outputs": [
        {
          "internalType": "bool",
          "name": "",
          "type": "bool"
        }
      ],
      "stateMutability": "view",
      "type": "function"
    },
    {
      "inputs": [
        {
          "internalType": "address",
          "name": "tokenOwner",
          "type": "address"
        }
      ],
      "name": "tokenIdsOf",
      "outputs": [
        {
          "internalType": "bytes32[]",
          "name": "",
          "type": "bytes32[]"
        }
      ],
      "stateMutability": "view",
      "type": "function"
    },
    {
      "inputs": [
        {
          "internalType": "bytes32",
          "name": "tokenId",
          "type": "bytes32"
        }
      ],
      "name": "tokenOwnerOf",
      "outputs": [
        {
          "internalType": "address",
          "name": "",
          "type": "address"
        }
      ],
      "stateMutability": "view",
      "type": "function"
    },
    {
      "inputs": [],
      "name": "totalSupply",
      "outputs": [
        {
          "internalType": "uint256",
          "name": "",
          "type": "uint256"
        }
      ],
      "stateMutability": "view",
      "type": "function"
    },
    {
      "inputs": [
        {
          "internalType": "address",
          "name": "from",
          "type": "address"
        },
        {
          "internalType": "address",
          "name": "to",
          "type": "address"
        },
        {
          "internalType": "bytes32",
          "name": "tokenId",
          "type": "bytes32"
        },
        {
          "internalType": "bool",
          "name": "force",
          "type": "bool"
        },
        {
          "internalType": "bytes",
          "name": "data",
          "type": "bytes"
        }
      ],
      "name": "transfer",
      "outputs": [],
      "stateMutability": "nonpayable",
      "type": "function"
    },
    {
      "inputs": [
        {
          "internalType": "address[]",
          "name": "from",
          "type": "address[]"
        },
        {
          "internalType": "address[]",
          "name": "to",
          "type": "address[]"
        },
        {
          "internalType": "bytes32[]",
          "name": "tokenId",
          "type": "bytes32[]"
        },
        {
          "internalType": "bool",
          "name": "force",
          "type": "bool"
        },
        {
          "internalType": "bytes[]",
          "name": "data",
          "type": "bytes[]"
        }
      ],
      "name": "transferBatch",
      "outputs": [],
      "stateMutability": "nonpayable",
      "type": "function"
    },
    {
      "inputs": [
        {
          "internalType": "address",
          "name": "newOwner",
          "type": "address"
        }
      ],
      "name": "transferOwnership",
      "outputs": [],
      "stateMutability": "nonpayable",
      "type": "function"
    }
  ],
  "bytecode": "0x60806040523480156200001157600080fd5b5060405162002a9638038062002a96833981016040819052620000349162000451565b828282828282806200004e6000546001600160a01b031690565b6001600160a01b0316816001600160a01b0316146200007d576200007d816200015360201b62000e631760201c565b6200008f635a988c0f60e01b620001e6565b506040805180820190915260048152632936598960e21b6020820152620000d8907feafec4d89fa9619884b6b89135626455000000000000000000000000a4d96624906200026a565b620001047fdeba1e292f8ba88238e10ab3c7f88bd4be4fac56cad5194b6ecceaf653468af1846200026a565b620001307f2f0a68ab07768e01943a599e73362a0e17a63a72e94dd2e384d2c1d4db932756836200026a565b50620001479150634939914560e01b9050620001e6565b50505050505062000599565b600054600160a01b900460ff1615620001c55760405162461bcd60e51b815260206004820152602960248201527f4f776e61626c653a206f776e65722063616e206f6e6c7920626520696e69746960448201526861746564206f6e636560b81b60648201526084015b60405180910390fd5b6000805460ff60a01b1916600160a01b179055620001e381620002ca565b50565b6001600160e01b03198082161415620002425760405162461bcd60e51b815260206004820152601c60248201527f4552433136353a20696e76616c696420696e74657266616365206964000000006044820152606401620001bc565b6001600160e01b0319166000908152600160208190526040909120805460ff19169091179055565b600082815260066020908152604090912082516200028b928401906200031a565b50817fece574603820d07bc9b91f2a932baadf4628aabcb8afba49776529c14a6104b282604051620002be9190620004de565b60405180910390a25050565b600080546001600160a01b038381166001600160a01b0319831681178455604051919092169283917f8be0079c531659141344cd1fd0a4f28419497f9722a3daafe3b4186f6b6457e09190a35050565b828054620003289062000546565b90600052602060002090601f0160209004810192826200034c576000855562000397565b82601f106200036757805160ff191683800117855562000397565b8280016001018555821562000397579182015b82811115620003975782518255916020019190600101906200037a565b50620003a5929150620003a9565b5090565b5b80821115620003a55760008155600101620003aa565b600082601f830112620003d257600080fd5b81516001600160401b0380821115620003ef57620003ef62000583565b604051601f8301601f19908116603f011681019082821181831017156200041a576200041a62000583565b816040528381528660208588010111156200043457600080fd5b6200044784602083016020890162000513565b9695505050505050565b6000806000606084860312156200046757600080fd5b83516001600160401b03808211156200047f57600080fd5b6200048d87838801620003c0565b94506020860151915080821115620004a457600080fd5b50620004b386828701620003c0565b604086015190935090506001600160a01b0381168114620004d357600080fd5b809150509250925092565b6020815260008251806020840152620004ff81604085016020870162000513565b601f01601f19169190910160400192915050565b60005b838110156200053057818101518382015260200162000516565b8381111562000540576000848401525b50505050565b600181811c908216806200055b57607f821691505b602082108114156200057d57634e487b7160e01b600052602260045260246000fd5b50919050565b634e487b7160e01b600052604160045260246000fd5b6124ed80620005a96000396000f3fe608060405234801561001057600080fd5b506004361061011b5760003560e01c8063511b6952116100b25780638da5cb5b11610081578063af255b6111610066578063af255b6114610272578063cf5182ba14610285578063f2fde38b1461029857600080fd5b80638da5cb5b14610241578063a3b261f21461025257600080fd5b8063511b695214610200578063559088681461021357806370a0823114610226578063715018a61461023957600080fd5b8063217b2270116100ee578063217b2270146101825780632a3654a4146101ad57806349a6078d146101c05780634e3e6e9c146101e057600080fd5b806301ffc9a7146101205780630b0c6d821461014857806314a6e2931461015d57806318160ddd14610170575b600080fd5b61013361012e3660046120b6565b6102ab565b60405190151581526020015b60405180910390f35b61015b610156366004611e9e565b6102eb565b005b61015b61016b36600461201c565b61048f565b6002545b60405190815260200161013f565b61019561019036600461209d565b6105ba565b6040516001600160a01b03909116815260200161013f565b6101336101bb366004611e9e565b610645565b6101d36101ce36600461209d565b6106e0565b60405161013f9190612216565b6101f36101ee366004611fe7565b610784565b60405161013f919061229b565b61015b61020e366004611e23565b61083a565b61015b610221366004611f32565b6108f1565b610174610234366004611e08565b610a19565b61015b610a3a565b6000546001600160a01b0316610195565b610265610260366004611e08565b610aa0565b60405161013f9190612263565b61015b610280366004611ec8565b610b3f565b61015b610293366004611e9e565b610bab565b61015b6102a6366004611e08565b610d98565b60006301ffc9a760e01b6001600160e01b0319831614806102e557506001600160e01b0319821660009081526001602052604090205460ff165b92915050565b60006102f6826105ba565b90506001600160a01b038116331461037b5760405162461bcd60e51b815260206004820152603160248201527f4c5350383a2063616c6c65722063616e206e6f74207265766f6b65206f70657260448201527f61746f7220666f7220746f6b656e20696400000000000000000000000000000060648201526084015b60405180910390fd5b806001600160a01b0316836001600160a01b031614156104035760405162461bcd60e51b815260206004820152602c60248201527f4c5350383a2063616e206e6f74207265766f6b6520746f6b656e206f776e657260448201527f206173206f70657261746f7200000000000000000000000000000000000000006064820152608401610372565b6001600160a01b03831661047f5760405162461bcd60e51b815260206004820152602d60248201527f4c5350383a2063616e206e6f74207265766f6b65207a65726f2061646472657360448201527f73206173206f70657261746f72000000000000000000000000000000000000006064820152608401610372565b61048a838284610f1a565b505050565b6000546001600160a01b031633146104e95760405162461bcd60e51b815260206004820181905260248201527f4f776e61626c653a2063616c6c6572206973206e6f7420746865206f776e65726044820152606401610372565b80518251146105605760405162461bcd60e51b815260206004820152602660248201527f4b657973206c656e677468206e6f7420657175616c20746f2076616c7565732060448201527f6c656e67746800000000000000000000000000000000000000000000000000006064820152608401610372565b60005b825181101561048a576105a88382815181106105815761058161247d565b602002602001015183838151811061059b5761059b61247d565b6020026020010151610f79565b806105b281612436565b915050610563565b6000818152600360205260408120546001600160a01b0316806102e55760405162461bcd60e51b815260206004820152602660248201527f4c5350383a2063616e206e6f74207175657279206e6f6e206578697374656e7460448201527f20746f6b656e00000000000000000000000000000000000000000000000000006064820152608401610372565b6000818152600360205260408120546001600160a01b03166106cf5760405162461bcd60e51b815260206004820152603360248201527f4c5350383a2063616e206e6f74207175657279206f70657261746f7220666f7260448201527f206e6f6e206578697374656e7420746f6b656e000000000000000000000000006064820152608401610372565b6106d98383610fd5565b9392505050565b6000818152600360205260409020546060906001600160a01b031661076d5760405162461bcd60e51b815260206004820152603360248201527f4c5350383a2063616e206e6f74207175657279206f70657261746f7220666f7260448201527f206e6f6e206578697374656e7420746f6b656e000000000000000000000000006064820152608401610372565b60008281526005602052604090206102e59061101e565b6060815167ffffffffffffffff8111156107a0576107a0612493565b6040519080825280602002602001820160405280156107d357816020015b60608152602001906001900390816107be5790505b50905060005b8251811015610834576108048382815181106107f7576107f761247d565b602002602001015161102b565b8282815181106108165761081661247d565b6020026020010181905250808061082c90612436565b9150506107d9565b50919050565b6108443384610fd5565b6108dd5760405162461bcd60e51b8152602060048201526044602482018190527f4c5350383a2063616e206e6f74207472616e736665722c2063616c6c65722069908201527f73206e6f7420746865206f776e6572206f72206f70657261746f72206f66207460648201527f6f6b656e00000000000000000000000000000000000000000000000000000000608482015260a401610372565b6108ea85858585856110cd565b5050505050565b83518551148015610903575082518551145b8015610910575080518551145b6109825760405162461bcd60e51b815260206004820152602860248201527f4c5350383a207472616e736665724261746368206c697374206c656e6774682060448201527f6d69736d617463680000000000000000000000000000000000000000000000006064820152608401610372565b60005b8551811015610a11576109ff8682815181106109a3576109a361247d565b60200260200101518683815181106109bd576109bd61247d565b60200260200101518684815181106109d7576109d761247d565b6020026020010151868686815181106109f2576109f261247d565b602002602001015161083a565b80610a0981612436565b915050610985565b505050505050565b6001600160a01b03811660009081526004602052604081206102e5906112b1565b6000546001600160a01b03163314610a945760405162461bcd60e51b815260206004820181905260248201527f4f776e61626c653a2063616c6c6572206973206e6f7420746865206f776e65726044820152606401610372565b610a9e60006112bb565b565b60606001600160a01b038216610b1e5760405162461bcd60e51b815260206004820152602a60248201527f4c5350383a2063616e206e6f7420717565727920746f6b656e20666f72207a6560448201527f726f2061646472657373000000000000000000000000000000000000000000006064820152608401610372565b6001600160a01b03821660009081526004602052604090206102e590611318565b6000546001600160a01b03163314610b995760405162461bcd60e51b815260206004820181905260248201527f4f776e61626c653a2063616c6c6572206973206e6f7420746865206f776e65726044820152606401610372565b610ba584848484611323565b50505050565b6000610bb6826105ba565b90506001600160a01b0381163314610c365760405162461bcd60e51b815260206004820152603460248201527f4c5350383a2063616c6c65722063616e206e6f7420617574686f72697a65206f60448201527f70657261746f7220666f7220746f6b656e2069640000000000000000000000006064820152608401610372565b826001600160a01b0316816001600160a01b03161415610cbe5760405162461bcd60e51b815260206004820152602f60248201527f4c5350383a2063616e206e6f7420617574686f72697a6520746f6b656e206f7760448201527f6e6572206173206f70657261746f7200000000000000000000000000000000006064820152608401610372565b6001600160a01b038316610d395760405162461bcd60e51b8152602060048201526024808201527f4c5350383a2063616e206e6f7420617574686f72697a65207a65726f2061646460448201527f72657373000000000000000000000000000000000000000000000000000000006064820152608401610372565b6000828152600560205260409020610d5190846114b8565b5081816001600160a01b0316846001600160a01b03167f34b797fc5a526f7bf1d2b5de25f6564fd85ae364e3ee939aee7c1ac27871a98860405160405180910390a4505050565b6000546001600160a01b03163314610df25760405162461bcd60e51b815260206004820181905260248201527f4f776e61626c653a2063616c6c6572206973206e6f7420746865206f776e65726044820152606401610372565b6001600160a01b038116610e575760405162461bcd60e51b815260206004820152602660248201527f4f776e61626c653a206e6577206f776e657220697320746865207a65726f206160448201526564647265737360d01b6064820152608401610372565b610e60816112bb565b50565b600054600160a01b900460ff1615610ee35760405162461bcd60e51b815260206004820152602960248201527f4f776e61626c653a206f776e65722063616e206f6e6c7920626520696e69746960448201527f61746564206f6e636500000000000000000000000000000000000000000000006064820152608401610372565b600080547fffffffffffffffffffffff00ffffffffffffffffffffffffffffffffffffffff16600160a01b179055610e60816112bb565b6000818152600560205260409020610f3290846114cd565b5080826001600160a01b0316846001600160a01b03167f17d5389f6ab6adb2647dfa0aa365c323d37adacc30b33a65310b6158ce1373d560405160405180910390a4505050565b60008281526006602090815260409091208251610f9892840190611b97565b50817fece574603820d07bc9b91f2a932baadf4628aabcb8afba49776529c14a6104b282604051610fc99190612316565b60405180910390a25050565b600080610fe1836105ba565b9050806001600160a01b0316846001600160a01b031614806110165750600083815260056020526040902061101690856114e2565b949350505050565b606060006106d983611504565b600081815260066020526040902080546060919061104890612401565b80601f016020809104026020016040519081016040528092919081815260200182805461107490612401565b80156110c15780601f10611096576101008083540402835291602001916110c1565b820191906000526020600020905b8154815290600101906020018083116110a457829003601f168201915b50505050509050919050565b846001600160a01b03166110e0846105ba565b6001600160a01b03161461115c5760405162461bcd60e51b815260206004820152602e60248201527f4c5350383a207472616e73666572206f6620746f6b656e49642066726f6d206960448201527f6e636f7272656374206f776e65720000000000000000000000000000000000006064820152608401610372565b6001600160a01b0384166111c15760405162461bcd60e51b815260206004820152602660248201527f4c5350383a2063616e206e6f74207472616e7366657220746f207a65726f206160448201526564647265737360d01b6064820152608401610372565b336111ce8686868561155f565b6111d9868686611652565b6111e386856116a4565b6001600160a01b038616600090815260046020526040902061120590856116f5565b506001600160a01b03851660009081526004602052604090206112289085611701565b5060008481526003602052604090819020805473ffffffffffffffffffffffffffffffffffffffff19166001600160a01b0388811691821790925591518692918916907fb333c813a7426a7a11e2b190cad52c44119421594b47f6f32ace6d8c7207b2bf9061129c908690899089906121ec565b60405180910390a4610a11868686868661170d565b60006102e5825490565b600080546001600160a01b0383811673ffffffffffffffffffffffffffffffffffffffff19831681178455604051919092169283917f8be0079c531659141344cd1fd0a4f28419497f9722a3daafe3b4186f6b6457e09190a35050565b60606102e582611504565b6001600160a01b03841661139f5760405162461bcd60e51b815260206004820152602260248201527f4c5350383a2063616e206e6f74206d696e7420746f207a65726f20616464726560448201527f73730000000000000000000000000000000000000000000000000000000000006064820152608401610372565b6000838152600360205260409020546001600160a01b0316156114045760405162461bcd60e51b815260206004820152601c60248201527f4c5350383a20746f6b656e496420616c7265616479206d696e746564000000006044820152606401610372565b3361141160008686611652565b6001600160a01b03851660009081526004602052604090206114339085611701565b50600084815260036020526040808220805473ffffffffffffffffffffffffffffffffffffffff19166001600160a01b03891690811790915590518692907fb333c813a7426a7a11e2b190cad52c44119421594b47f6f32ace6d8c7207b2bf906114a2908690899089906121ec565b60405180910390a46108ea60008686868661170d565b60006106d9836001600160a01b0384166118d2565b60006106d9836001600160a01b038416611921565b6001600160a01b038116600090815260018301602052604081205415156106d9565b6060816000018054806020026020016040519081016040528092919081815260200182805480156110c157602002820191906000526020600020905b8154815260200190600101908083116115405750505050509050919050565b61156884611a14565b8015611580575061158084631aed5a8560e21b611a47565b15610ba55760008484848460405160200161159e9493929190612183565b60408051601f1981840301815290829052631aed5a8560e21b825291506001600160a01b03861690636bb56a14906115fc907f3724c94f0815e936299cca424da4140752198e0beb7931a6e0925d11bc97544c9085906004016122fd565b600060405180830381600087803b15801561161657600080fd5b505af115801561162a573d6000803e3d6000fd5b505050506040513d6000823e601f3d908101601f19168201604052610a1191908101906120e0565b6001600160a01b0383166116795760016002600082825461167391906123a6565b90915550505b6001600160a01b03821661048a5760016002600082825461169a91906123be565b9091555050505050565b6000818152600560205260408120906116bc826112b1565b905060005b818110156108ea5760006116d58482611a63565b90506116e2818787610f1a565b50806116ed81612436565b9150506116c1565b60006106d98383611921565b60006106d983836118d2565b61171684611a14565b801561172e575061172e84631aed5a8560e21b611a47565b156118075760008585858460405160200161174c9493929190612183565b60408051601f1981840301815290829052631aed5a8560e21b825291506001600160a01b03861690636bb56a14906117aa907fc7a120a42b6057a0cbed111fbbfbd52fcd96748c04394f77fc2c3adbe0391e019085906004016122fd565b600060405180830381600087803b1580156117c457600080fd5b505af11580156117d8573d6000803e3d6000fd5b505050506040513d6000823e601f3d908101601f1916820160405261180091908101906120e0565b50506108ea565b816108ea576001600160a01b0384163b1561188a5760405162461bcd60e51b815260206004820152603460248201527f4c5350383a20746f6b656e20726563656976657220636f6e7472616374206d6960448201527f7373696e67204c53503120696e746572666163650000000000000000000000006064820152608401610372565b60405162461bcd60e51b815260206004820152601b60248201527f4c5350383a20746f6b656e20726563656976657220697320454f4100000000006044820152606401610372565b6000818152600183016020526040812054611919575081546001818101845560008481526020808220909301849055845484825282860190935260409020919091556102e5565b5060006102e5565b60008181526001830160205260408120548015611a0a5760006119456001836123be565b8554909150600090611959906001906123be565b90508181146119be5760008660000182815481106119795761197961247d565b906000526020600020015490508087600001848154811061199c5761199c61247d565b6000918252602080832090910192909255918252600188019052604090208390555b85548690806119cf576119cf612467565b6001900381819060005260206000200160009055905585600101600086815260200190815260200160002060009055600193505050506102e5565b60009150506102e5565b6000611a27826301ffc9a760e01b611a6f565b80156102e55750611a40826001600160e01b0319611a6f565b1592915050565b6000611a5283611a14565b80156106d957506106d98383611a6f565b60006106d98383611b6d565b604080516001600160e01b0319831660248083019190915282518083039091018152604490910182526020810180517bffffffffffffffffffffffffffffffffffffffffffffffffffffffff166301ffc9a760e01b179052905160009190829081906001600160a01b0387169061753090611aeb9086906121d0565b6000604051808303818686fa925050503d8060008114611b27576040519150601f19603f3d011682016040523d82523d6000602084013e611b2c565b606091505b5091509150602081511015611b4757600093505050506102e5565b818015611b63575080806020019051810190611b639190612080565b9695505050505050565b6000826000018281548110611b8457611b8461247d565b9060005260206000200154905092915050565b828054611ba390612401565b90600052602060002090601f016020900481019282611bc55760008555611c0b565b82601f10611bde57805160ff1916838001178555611c0b565b82800160010185558215611c0b579182015b82811115611c0b578251825591602001919060010190611bf0565b50611c17929150611c1b565b5090565b5b80821115611c175760008155600101611c1c565b80356001600160a01b0381168114611c4757600080fd5b919050565b600082601f830112611c5d57600080fd5b81356020611c72611c6d8361235a565b612329565b80838252828201915082860187848660051b8901011115611c9257600080fd5b60005b85811015611cb857611ca682611c30565b84529284019290840190600101611c95565b5090979650505050505050565b600082601f830112611cd657600080fd5b81356020611ce6611c6d8361235a565b80838252828201915082860187848660051b8901011115611d0657600080fd5b60005b85811015611cb857813584529284019290840190600101611d09565b600082601f830112611d3657600080fd5b81356020611d46611c6d8361235a565b80838252828201915082860187848660051b8901011115611d6657600080fd5b6000805b86811015611da957823567ffffffffffffffff811115611d88578283fd5b611d968b88838d0101611db7565b8652509385019391850191600101611d6a565b509198975050505050505050565b600082601f830112611dc857600080fd5b8135611dd6611c6d8261237e565b818152846020838601011115611deb57600080fd5b816020850160208301376000918101602001919091529392505050565b600060208284031215611e1a57600080fd5b6106d982611c30565b600080600080600060a08688031215611e3b57600080fd5b611e4486611c30565b9450611e5260208701611c30565b9350604086013592506060860135611e69816124a9565b9150608086013567ffffffffffffffff811115611e8557600080fd5b611e9188828901611db7565b9150509295509295909350565b60008060408385031215611eb157600080fd5b611eba83611c30565b946020939093013593505050565b60008060008060808587031215611ede57600080fd5b611ee785611c30565b9350602085013592506040850135611efe816124a9565b9150606085013567ffffffffffffffff811115611f1a57600080fd5b611f2687828801611db7565b91505092959194509250565b600080600080600060a08688031215611f4a57600080fd5b853567ffffffffffffffff80821115611f6257600080fd5b611f6e89838a01611c4c565b96506020880135915080821115611f8457600080fd5b611f9089838a01611c4c565b95506040880135915080821115611fa657600080fd5b611fb289838a01611cc5565b945060608801359150611fc4826124a9565b90925060808701359080821115611fda57600080fd5b50611e9188828901611d25565b600060208284031215611ff957600080fd5b813567ffffffffffffffff81111561201057600080fd5b61101684828501611cc5565b6000806040838503121561202f57600080fd5b823567ffffffffffffffff8082111561204757600080fd5b61205386838701611cc5565b9350602085013591508082111561206957600080fd5b5061207685828601611d25565b9150509250929050565b60006020828403121561209257600080fd5b81516106d9816124a9565b6000602082840312156120af57600080fd5b5035919050565b6000602082840312156120c857600080fd5b81356001600160e01b0319811681146106d957600080fd5b6000602082840312156120f257600080fd5b815167ffffffffffffffff81111561210957600080fd5b8201601f8101841361211a57600080fd5b8051612128611c6d8261237e565b81815285602083850101111561213d57600080fd5b61214e8260208301602086016123d5565b95945050505050565b6000815180845261216f8160208601602086016123d5565b601f01601f19169290920160200192915050565b60006bffffffffffffffffffffffff19808760601b168352808660601b1660148401525083602883015282516121c08160488501602087016123d5565b9190910160480195945050505050565b600082516121e28184602087016123d5565b9190910192915050565b6001600160a01b0384168152821515602082015260606040820152600061214e6060830184612157565b6020808252825182820181905260009190848201906040850190845b818110156122575783516001600160a01b031683529284019291840191600101612232565b50909695505050505050565b6020808252825182820181905260009190848201906040850190845b818110156122575783518352928401929184019160010161227f565b6000602080830181845280855180835260408601915060408160051b870101925083870160005b828110156122f057603f198886030184526122de858351612157565b945092850192908501906001016122c2565b5092979650505050505050565b8281526040602082015260006110166040830184612157565b6020815260006106d96020830184612157565b604051601f8201601f1916810167ffffffffffffffff8111828210171561235257612352612493565b604052919050565b600067ffffffffffffffff82111561237457612374612493565b5060051b60200190565b600067ffffffffffffffff82111561239857612398612493565b50601f01601f191660200190565b600082198211156123b9576123b9612451565b500190565b6000828210156123d0576123d0612451565b500390565b60005b838110156123f05781810151838201526020016123d8565b83811115610ba55750506000910152565b600181811c9082168061241557607f821691505b6020821081141561083457634e487b7160e01b600052602260045260246000fd5b600060001982141561244a5761244a612451565b5060010190565b634e487b7160e01b600052601160045260246000fd5b634e487b7160e01b600052603160045260246000fd5b634e487b7160e01b600052603260045260246000fd5b634e487b7160e01b600052604160045260246000fd5b8015158114610e6057600080fdfea2646970667358221220d03a53f5b3b0f38365ac9fc9183beddac5f3ed4f02449d3656b88ff3a834d10f64736f6c63430008070033",
  "linkReferences": {},
  "deployedLinkReferences": {}
}